{
  "contractName": "Voting",
  "abi": [
    {
      "inputs": [
        {
          "internalType": "bytes32[]",
          "name": "proposalNames",
          "type": "bytes32[]"
        }
      ],
      "stateMutability": "nonpayable",
      "type": "constructor"
    },
    {
      "inputs": [],
      "name": "chairperson",
      "outputs": [
        {
          "internalType": "address",
          "name": "",
          "type": "address"
        }
      ],
      "stateMutability": "view",
      "type": "function"
    },
    {
      "inputs": [
        {
          "internalType": "uint256",
          "name": "",
          "type": "uint256"
        }
      ],
      "name": "proposals",
      "outputs": [
        {
          "internalType": "bytes32",
          "name": "name",
          "type": "bytes32"
        },
        {
          "internalType": "uint256",
          "name": "voteCount",
          "type": "uint256"
        }
      ],
      "stateMutability": "view",
      "type": "function"
    },
    {
      "inputs": [
        {
          "internalType": "address",
          "name": "",
          "type": "address"
        }
      ],
      "name": "voters",
      "outputs": [
        {
          "internalType": "uint256",
          "name": "weight",
          "type": "uint256"
        },
        {
          "internalType": "bool",
          "name": "voted",
          "type": "bool"
        },
        {
          "internalType": "address",
          "name": "delegate",
          "type": "address"
        },
        {
          "internalType": "uint256",
          "name": "vote",
          "type": "uint256"
        }
      ],
      "stateMutability": "view",
      "type": "function"
    },
    {
      "inputs": [
        {
          "internalType": "address",
          "name": "voter",
          "type": "address"
        }
      ],
      "name": "giveRightToVote",
      "outputs": [],
      "stateMutability": "nonpayable",
      "type": "function"
    },
    {
      "inputs": [
        {
          "internalType": "address",
          "name": "to",
          "type": "address"
        }
      ],
      "name": "delegate",
      "outputs": [],
      "stateMutability": "nonpayable",
      "type": "function"
    },
    {
      "inputs": [
        {
          "internalType": "uint256",
          "name": "proposal",
          "type": "uint256"
        }
      ],
      "name": "vote",
      "outputs": [],
      "stateMutability": "nonpayable",
      "type": "function"
    },
    {
      "inputs": [],
      "name": "winningProposal",
      "outputs": [
        {
          "internalType": "uint256",
          "name": "winningProposal_",
          "type": "uint256"
        }
      ],
      "stateMutability": "view",
      "type": "function"
    },
    {
      "inputs": [],
      "name": "winnerName",
      "outputs": [
        {
          "internalType": "bytes32",
          "name": "winnerName_",
          "type": "bytes32"
        }
      ],
      "stateMutability": "view",
      "type": "function"
    }
  ],
  "bytecode": "0x60806040523480156200001157600080fd5b506040516200147238038062001472833981810160405281019062000037919062000342565b336000806101000a81548173ffffffffffffffffffffffffffffffffffffffff021916908373ffffffffffffffffffffffffffffffffffffffff16021790555060018060008060009054906101000a900473ffffffffffffffffffffffffffffffffffffffff1673ffffffffffffffffffffffffffffffffffffffff1673ffffffffffffffffffffffffffffffffffffffff1681526020019081526020016000206000018190555060005b81518110156200017657600260405180604001604052808484815181106200010f576200010e62000393565b5b60200260200101518152602001600081525090806001815401808255809150506001900390600052602060002090600202016000909190919091506000820151816000015560208201518160010155505080806200016d90620003fb565b915050620000e2565b505062000448565b6000604051905090565b600080fd5b600080fd5b600080fd5b6000601f19601f8301169050919050565b7f4e487b7100000000000000000000000000000000000000000000000000000000600052604160045260246000fd5b620001e28262000197565b810181811067ffffffffffffffff82111715620002045762000203620001a8565b5b80604052505050565b6000620002196200017e565b9050620002278282620001d7565b919050565b600067ffffffffffffffff8211156200024a5762000249620001a8565b5b602082029050602081019050919050565b600080fd5b6000819050919050565b620002758162000260565b81146200028157600080fd5b50565b60008151905062000295816200026a565b92915050565b6000620002b2620002ac846200022c565b6200020d565b90508083825260208201905060208402830185811115620002d857620002d76200025b565b5b835b81811015620003055780620002f0888262000284565b845260208401935050602081019050620002da565b5050509392505050565b600082601f83011262000327576200032662000192565b5b8151620003398482602086016200029b565b91505092915050565b6000602082840312156200035b576200035a62000188565b5b600082015167ffffffffffffffff8111156200037c576200037b6200018d565b5b6200038a848285016200030f565b91505092915050565b7f4e487b7100000000000000000000000000000000000000000000000000000000600052603260045260246000fd5b7f4e487b7100000000000000000000000000000000000000000000000000000000600052601160045260246000fd5b6000819050919050565b60006200040882620003f1565b91507fffffffffffffffffffffffffffffffffffffffffffffffffffffffffffffffff82036200043d576200043c620003c2565b5b600182019050919050565b61101a80620004586000396000f3fe608060405234801561001057600080fd5b50600436106100885760003560e01c8063609ff1bd1161005b578063609ff1bd146101145780639e7b8d6114610132578063a3ec138d1461014e578063e2ba53f01461018157610088565b80630121b93f1461008d578063013cf08b146100a95780632e4176cf146100da5780635c19a95c146100f8575b600080fd5b6100a760048036038101906100a291906109f4565b61019f565b005b6100c360048036038101906100be91906109f4565b61029e565b6040516100d1929190610a49565b60405180910390f35b6100e26102d2565b6040516100ef9190610ab3565b60405180910390f35b610112600480360381019061010d9190610afa565b6102f6565b005b61011c6106e9565b6040516101299190610b27565b60405180910390f35b61014c60048036038101906101479190610afa565b610771565b005b61016860048036038101906101639190610afa565b610928565b6040516101789493929190610b5d565b60405180910390f35b610189610985565b6040516101969190610ba2565b60405180910390f35b6000600160003373ffffffffffffffffffffffffffffffffffffffff1673ffffffffffffffffffffffffffffffffffffffff16815260200190815260200160002090508060010160009054906101000a900460ff1615610234576040517f08c379a000000000000000000000000000000000000000000000000000000000815260040161022b90610c1a565b60405180910390fd5b60018160010160006101000a81548160ff02191690831515021790555081816002018190555080600001546002838154811061027357610272610c3a565b5b906000526020600020906002020160010160008282546102939190610c98565b925050819055505050565b600281815481106102ae57600080fd5b90600052602060002090600202016000915090508060000154908060010154905082565b60008054906101000a900473ffffffffffffffffffffffffffffffffffffffff1681565b6000600160003373ffffffffffffffffffffffffffffffffffffffff1673ffffffffffffffffffffffffffffffffffffffff16815260200190815260200160002090506000816000015403610380576040517f08c379a000000000000000000000000000000000000000000000000000000000815260040161037790610d3a565b60405180910390fd5b8060010160009054906101000a900460ff16156103d2576040517f08c379a00000000000000000000000000000000000000000000000000000000081526004016103c990610da6565b60405180910390fd5b3373ffffffffffffffffffffffffffffffffffffffff168273ffffffffffffffffffffffffffffffffffffffff1603610440576040517f08c379a000000000000000000000000000000000000000000000000000000000815260040161043790610e12565b60405180910390fd5b5b600073ffffffffffffffffffffffffffffffffffffffff16600160008473ffffffffffffffffffffffffffffffffffffffff1673ffffffffffffffffffffffffffffffffffffffff16815260200190815260200160002060010160019054906101000a900473ffffffffffffffffffffffffffffffffffffffff1673ffffffffffffffffffffffffffffffffffffffff16146105af57600160008373ffffffffffffffffffffffffffffffffffffffff1673ffffffffffffffffffffffffffffffffffffffff16815260200190815260200160002060010160019054906101000a900473ffffffffffffffffffffffffffffffffffffffff1691503373ffffffffffffffffffffffffffffffffffffffff168273ffffffffffffffffffffffffffffffffffffffff16036105aa576040517f08c379a00000000000000000000000000000000000000000000000000000000081526004016105a190610e7e565b60405180910390fd5b610441565b6000600160008473ffffffffffffffffffffffffffffffffffffffff1673ffffffffffffffffffffffffffffffffffffffff168152602001908152602001600020905060018160000154101561060457600080fd5b60018260010160006101000a81548160ff021916908315150217905550828260010160016101000a81548173ffffffffffffffffffffffffffffffffffffffff021916908373ffffffffffffffffffffffffffffffffffffffff1602179055508060010160009054906101000a900460ff16156106c4578160000154600282600201548154811061069857610697610c3a565b5b906000526020600020906002020160010160008282546106b89190610c98565b925050819055506106e4565b81600001548160000160008282546106dc9190610c98565b925050819055505b505050565b6000806000905060005b60028054905081101561076c57816002828154811061071557610714610c3a565b5b9060005260206000209060020201600101541115610759576002818154811061074157610740610c3a565b5b90600052602060002090600202016001015491508092505b808061076490610e9e565b9150506106f3565b505090565b60008054906101000a900473ffffffffffffffffffffffffffffffffffffffff1673ffffffffffffffffffffffffffffffffffffffff163373ffffffffffffffffffffffffffffffffffffffff16146107ff576040517f08c379a00000000000000000000000000000000000000000000000000000000081526004016107f690610f58565b60405180910390fd5b600160008273ffffffffffffffffffffffffffffffffffffffff1673ffffffffffffffffffffffffffffffffffffffff16815260200190815260200160002060010160009054906101000a900460ff161561088f576040517f08c379a000000000000000000000000000000000000000000000000000000000815260040161088690610fc4565b60405180910390fd5b6000600160008373ffffffffffffffffffffffffffffffffffffffff1673ffffffffffffffffffffffffffffffffffffffff16815260200190815260200160002060000154146108de57600080fd5b60018060008373ffffffffffffffffffffffffffffffffffffffff1673ffffffffffffffffffffffffffffffffffffffff1681526020019081526020016000206000018190555050565b60016020528060005260406000206000915090508060000154908060010160009054906101000a900460ff16908060010160019054906101000a900473ffffffffffffffffffffffffffffffffffffffff16908060020154905084565b600060026109916106e9565b815481106109a2576109a1610c3a565b5b906000526020600020906002020160000154905090565b600080fd5b6000819050919050565b6109d1816109be565b81146109dc57600080fd5b50565b6000813590506109ee816109c8565b92915050565b600060208284031215610a0a57610a096109b9565b5b6000610a18848285016109df565b91505092915050565b6000819050919050565b610a3481610a21565b82525050565b610a43816109be565b82525050565b6000604082019050610a5e6000830185610a2b565b610a6b6020830184610a3a565b9392505050565b600073ffffffffffffffffffffffffffffffffffffffff82169050919050565b6000610a9d82610a72565b9050919050565b610aad81610a92565b82525050565b6000602082019050610ac86000830184610aa4565b92915050565b610ad781610a92565b8114610ae257600080fd5b50565b600081359050610af481610ace565b92915050565b600060208284031215610b1057610b0f6109b9565b5b6000610b1e84828501610ae5565b91505092915050565b6000602082019050610b3c6000830184610a3a565b92915050565b60008115159050919050565b610b5781610b42565b82525050565b6000608082019050610b726000830187610a3a565b610b7f6020830186610b4e565b610b8c6040830185610aa4565b610b996060830184610a3a565b95945050505050565b6000602082019050610bb76000830184610a2b565b92915050565b600082825260208201905092915050565b7f416c726561647920766f7465642e000000000000000000000000000000000000600082015250565b6000610c04600e83610bbd565b9150610c0f82610bce565b602082019050919050565b60006020820190508181036000830152610c3381610bf7565b9050919050565b7f4e487b7100000000000000000000000000000000000000000000000000000000600052603260045260246000fd5b7f4e487b7100000000000000000000000000000000000000000000000000000000600052601160045260246000fd5b6000610ca3826109be565b9150610cae836109be565b9250827fffffffffffffffffffffffffffffffffffffffffffffffffffffffffffffffff03821115610ce357610ce2610c69565b5b828201905092915050565b7f596f752068617665206e6f20726967687420746f20766f746500000000000000600082015250565b6000610d24601983610bbd565b9150610d2f82610cee565b602082019050919050565b60006020820190508181036000830152610d5381610d17565b9050919050565b7f596f7520616c726561647920766f7465642e0000000000000000000000000000600082015250565b6000610d90601283610bbd565b9150610d9b82610d5a565b602082019050919050565b60006020820190508181036000830152610dbf81610d83565b9050919050565b7f53656c662d64656c65676174696f6e20697320646973616c6c6f7765642e0000600082015250565b6000610dfc601e83610bbd565b9150610e0782610dc6565b602082019050919050565b60006020820190508181036000830152610e2b81610def565b9050919050565b7f466f756e64206c6f6f7020696e2064656c65676174696f6e2e00000000000000600082015250565b6000610e68601983610bbd565b9150610e7382610e32565b602082019050919050565b60006020820190508181036000830152610e9781610e5b565b9050919050565b6000610ea9826109be565b91507fffffffffffffffffffffffffffffffffffffffffffffffffffffffffffffffff8203610edb57610eda610c69565b5b600182019050919050565b7f4f6e6c79206368616972706572736f6e2063616e20676976652072696768742060008201527f746f20766f74652e000000000000000000000000000000000000000000000000602082015250565b6000610f42602883610bbd565b9150610f4d82610ee6565b604082019050919050565b60006020820190508181036000830152610f7181610f35565b9050919050565b7f54686520766f74657220616c726561647920766f7465642e0000000000000000600082015250565b6000610fae601883610bbd565b9150610fb982610f78565b602082019050919050565b60006020820190508181036000830152610fdd81610fa1565b905091905056fea2646970667358221220dc03a63d210682eacc80ba3719a4c5c82daf35c9632791e5ca5b47bf92bb527e64736f6c634300080d0033",
  "immutableReferences": {},
  "source": "// SPDX-License-Identifier: GPL-3.0\npragma solidity >=0.7.0 <0.9.0;\n\n/// @title \ncontract Voting {\n    // \n    // \n    struct Voter {\n        uint weight; // \n        bool voted; // \n        address delegate; // \n        uint vote; // \n    }\n\n    // \n    struct Proposal {\n        bytes32 name; // 32\n        uint voteCount; // \n    }\n\n    address public chairperson;\n\n    //  `Voter`\n    mapping(address => Voter) public voters;\n\n    //  `Proposal` \n    Proposal[] public proposals;\n\n    ///  `proposalNames` \n    constructor(bytes32[] memory proposalNames) {\n        chairperson = msg.sender;\n        voters[chairperson].weight = 1;\n        //\n        // Proposal \n        for (uint i = 0; i < proposalNames.length; i++) {\n            // `Proposal({...})`  Proposal \n            // `proposals.push(...)`  `proposals` \n            proposals.push(Proposal({name: proposalNames[i], voteCount: 0}));\n        }\n    }\n\n    //  `voter` \n    //  `chairperson` \n    function giveRightToVote(address voter) external {\n        //  `require`  `false`\n        // \n        //  EVM  gas\n        //  require \n        //  require \n        require(\n            msg.sender == chairperson,\n            \"Only chairperson can give right to vote.\"\n        );\n        require(!voters[voter].voted, \"The voter already voted.\");\n        require(voters[voter].weight == 0);\n        voters[voter].weight = 1;\n    }\n\n    ///  `to`\n    function delegate(address to) external {\n        // \n        Voter storage sender = voters[msg.sender];\n        require(sender.weight != 0, \"You have no right to vote\");\n        require(!sender.voted, \"You already voted.\");\n\n        require(to != msg.sender, \"Self-delegation is disallowed.\");\n\n        //  `to` \n        // \n        // gasgasLimit\n        // \n        // \n        while (voters[to].delegate != address(0)) {\n            to = voters[to].delegate;\n\n            // \n            require(to != msg.sender, \"Found loop in delegation.\");\n        }\n\n        // `sender` ,  `voters[msg.sender].voted` \n        Voter storage delegate_ = voters[to];\n\n        // Voters cannot delegate to accounts that cannot vote.\n        require(delegate_.weight >= 1);\n\n        // Since `sender` is a reference, this\n        // modifies `voters[msg.sender]`.\n        sender.voted = true;\n        sender.delegate = to;\n\n        if (delegate_.voted) {\n            // \n            proposals[delegate_.vote].voteCount += sender.weight;\n        } else {\n            // \n            delegate_.weight += sender.weight;\n        }\n    }\n\n    /// ()\n    ///  `proposals[proposal].name`.\n    function vote(uint proposal) external {\n        Voter storage sender = voters[msg.sender];\n        require(!sender.voted, \"Already voted.\");\n        sender.voted = true;\n        sender.vote = proposal;\n\n        //  `proposal` \n        proposals[proposal].voteCount += sender.weight;\n    }\n\n    /// @dev \n    function winningProposal() public view returns (uint winningProposal_) {\n        uint winningVoteCount = 0;\n        for (uint p = 0; p < proposals.length; p++) {\n            if (proposals[p].voteCount > winningVoteCount) {\n                winningVoteCount = proposals[p].voteCount;\n                winningProposal_ = p;\n            }\n        }\n    }\n\n    //  winningProposal() \n    function winnerName() public view returns (bytes32 winnerName_) {\n        winnerName_ = proposals[winningProposal()].name;\n    }\n}\n",
  "sourcePath": "C:\\Users\\86155\\.vscode\\\\MetaCoin\\contracts\\Voting.sol",
  "compiler": {
    "name": "solc",
    "version": "0.8.13+commit.abaa5c0e.Emscripten.clang"
  },
  "schemaVersion": "3.4.16",
  "updatedAt": "2023-09-21T04:07:04.165Z",
  "networkType": "ethereum",
  "devdoc": {
    "kind": "dev",
    "methods": {
      "winningProposal()": {
        "details": ""
      }
    },
    "title": "",
    "version": 1
  },
  "userdoc": {
    "kind": "user",
    "methods": {
      "constructor": {
        "notice": " `proposalNames` "
      },
      "delegate(address)": {
        "notice": " `to`"
      },
      "vote(uint256)": {
        "notice": "()  `proposals[proposal].name`."
      }
    },
    "version": 1
  }
}